{
    "contractName": "LockAsset",
    "abi": [
        {
            "inputs": [
                {
                    "internalType": "uint256",
                    "name": "num",
                    "type": "uint256"
                }
            ],
            "name": "createAsset",
            "outputs": [
                {
                    "internalType": "uint256",
                    "name": "",
                    "type": "uint256"
                }
            ],
            "stateMutability": "nonpayable",
            "type": "function"
        },
        {
            "inputs": [
                {
                    "internalType": "uint256",
                    "name": "num",
                    "type": "uint256"
                }
            ],
            "name": "deleteAsset",
            "outputs": [
                {
                    "internalType": "uint256",
                    "name": "",
                    "type": "uint256"
                }
            ],
            "stateMutability": "nonpayable",
            "type": "function"
        },
        {
            "inputs": [],
            "name": "getLockedAsset",
            "outputs": [
                {
                    "internalType": "uint256",
                    "name": "",
                    "type": "uint256"
                }
            ],
            "stateMutability": "view",
            "type": "function"
        },
        {
            "inputs": [],
            "name": "getUnLockedAsset",
            "outputs": [
                {
                    "internalType": "uint256",
                    "name": "",
                    "type": "uint256"
                }
            ],
            "stateMutability": "view",
            "type": "function"
        },
        {
            "inputs": [
                {
                    "internalType": "uint256",
                    "name": "num",
                    "type": "uint256"
                }
            ],
            "name": "lockAsset",
            "outputs": [
                {
                    "internalType": "uint256",
                    "name": "",
                    "type": "uint256"
                },
                {
                    "internalType": "uint256",
                    "name": "",
                    "type": "uint256"
                }
            ],
            "stateMutability": "nonpayable",
            "type": "function"
        },
        {
            "inputs": [
                {
                    "internalType": "uint256",
                    "name": "num",
                    "type": "uint256"
                }
            ],
            "name": "unLockAsset",
            "outputs": [
                {
                    "internalType": "uint256",
                    "name": "",
                    "type": "uint256"
                },
                {
                    "internalType": "uint256",
                    "name": "",
                    "type": "uint256"
                }
            ],
            "stateMutability": "nonpayable",
            "type": "function"
        }
    ],
    "bytecode": "608060405234801561001057600080fd5b50610364806100206000396000f3fe608060405234801561001057600080fd5b50600436106100625760003560e01c80631629614e1461006757806324cc7f29146100945780636176c932146100a757806367de0351146100c65780637eb79b53146100de578063a872d3b6146100f1575b600080fd5b61007a6100753660046102d0565b610104565b604080519283526020830191909152015b60405180910390f35b61007a6100a23660046102d0565b6101aa565b336000908152602081905260409020545b60405190815260200161008b565b336000908152602081905260409020600101546100b8565b6100b86100ec3660046102d0565b610228565b6100b86100ff3660046102d0565b61028e565b33600090815260208190526040812060010154819083111561013f575050336000908152602081905260409020600181015490549092909150565b3360009081526020819052604081206001018054859290610161908490610301565b909155505033600090815260208190526040812080548592906101859084906102e9565b9091555050336000908152602081905260409020600181015490549094909350915050565b3360009081526020819052604081205481908311156101e2575050336000908152602081905260409020600181015490549092909150565b33600090815260208190526040812060010180548592906102049084906102e9565b90915550503360009081526020819052604081208054859290610185908490610301565b336000908152602081905260408120548211156102545750503360009081526020819052604090205490565b3360009081526020819052604081208054849290610273908490610301565b90915550503360009081526020819052604090205492915050565b336000908152602081905260408120600101805483919083906102b29084906102e9565b90915550503360009081526020819052604090206001015492915050565b6000602082840312156102e257600080fd5b5035919050565b600082198211156102fc576102fc610318565b500190565b60008282101561031357610313610318565b500390565b634e487b7160e01b600052601160045260246000fdfea26469706673582212206221837d7eb6906bbaf974fbe64696ed3b7305d1a8d6168b03b15962a9c8dea364736f6c63430008060033",
    "sourcePath": "/Users/jasonwang/cactus-odap-merge/packages/cactus-plugin-ledger-connector-besu/src/test/solidity/hello-world-contract/lock-asset.sol",
    "compiler": {
        "name": "solc",
        "version": "0.8.6+commit.11564f7e"
    },
    "functionHashes": {
        "createAsset(uint256)": "a872d3b6",
        "deleteAsset(uint256)": "7eb79b53",
        "getLockedAsset()": "6176c932",
        "getUnLockedAsset()": "67de0351",
        "lockAsset(uint256)": "1629614e",
        "unLockAsset(uint256)": "24cc7f29"
    },
    "gasEstimates": {
        "creation": {
            "codeDepositCost": "173600",
            "executionCost": "220",
            "totalCost": "173820"
        },
        "external": {
            "createAsset(uint256)": "26937",
            "deleteAsset(uint256)": "29091",
            "getLockedAsset()": "2374",
            "getUnLockedAsset()": "2413",
            "lockAsset(uint256)": "55526",
            "unLockAsset(uint256)": "55542"
        }
    }
}